:040000000C94F00468
:040048000C945B05B4
:14008C000000F04100002544000D23302050373530205431B5
:1400A0003030002330205031343530205431303000233020E7
:1400B400503130303020543130300D23302050323030302070
:1400C800543130300D000040400000003F0000A04000000093
:1400DC003F0000C0400000003F0000C0400000803E0000A034
:1400F000400000003F0000C0400000003F00004040000000BE
:140104003F000000400000803F000040400000003F0000A04A
:14011800400000003F0000C0400000003F0000C04000008095
:14012C003E0000A0400000803E0000C0400000003F00004064
:14014000400000003F000040400000803F000040400000006D
:140154003F0000A0400000003F0000C0400000003F0000C03A
:14016800400000803E0000A0400000803E0000C040000000E7
:14017C003F000040400000003F000000400000803F0000A0D2
:14019000400000003F000040400000003F000000400000805D
:1401A4003E000040400000803E000000400000803E0000804D
:1401B8003F0000803E000000400000003F0000D041000000A6
:1401CC003F0000D0410000803F0000D0410000003F000000C0
:1401E000400000003F000000400000803F0000A040000000AD
:1401F4003F000040400000003F000040400000803F000000BA
:14020800400000803E0000803F0000803E0000D04100000056
:14021C003F0000D0410000803F0000A0400000003F00004060
:14023000400000003F000000400000803E000040400000803D
:140244003E000000400000803E0000803F0000803E000000ED
:14025800400000003F0000D0410000003F0000D04100008032
:14026C003F0000A0400000003F000040400000003F00000061
:14028000400000803E000040400000803E000000400000806E
:140294003E0000803F0000803E000000400000003F0000C05C
:1402A800400000003F0000C0400000803F0000F0410000F0E3
:1402BC004100000000000000000000000000000000000000ED
:1402D00000000000000000000000000000000000000000001A
:1402E400000000000000000000000000000000000000000006
:1402F8000000000000000000000000000000000000000000F2
:14030C000000000000000000000000000000000000000000DD
:140320000000000000000000000000000000000000000000C9
:140334000000000000000000000000000000000000000000B5
:140348000000000000000000000000000000000000000000A1
:14035C0000000000000000000000000000000000000000008D
:14037000000000000000000000000000000000000000000079
:14038400000000000000000000000000000000000000000065
:14039800000000000000000000000000000000000000000051
:1403AC0000000000000000000000000000000000000000003D
:1403C000000000000000000000000000000000000000000029
:1403D400000000000000000000000000000000000000000015
:1403E80000000000000000803F0000003F0000D041000000F2
:1403FC003F0000D0410000003F0000803F0000003F000080E0
:140410003F0000803F0000803F0000003F000000400000009C
:140424003F000000400000003F000040400000003F00004007
:14043800400000803F000040400000003F00000040000000B2
:14044C003F000000400000003F0000803F0000003F00008060
:140460003F0000003F0000D0410000003F0000803F000000FB
:1404740040000000400000003F0000803F0000003F0000D0E7
:1404880041000000400000803F0000003F0000803F00000022
:14049C003F000000400000003F000040400000003F0000408F
:1404B000400000803F000040400000003F0000803F000000BB
:1404C4003F000000400000003F000040400000003F00004067
:1404D800400000803F0000A0400000003F0000803F00000033
:1404EC003F000000400000003F000040400000003F0000403F
:14050000400000003F000040400000003F0000404000000029
:140514003F0000D0410000003F0000803F0000003F00000046
:14052800400000003F000000400000803F0000404000008041
:14053C003F0000D0410000803F0000803F0000003F0000801E
:140550003F0000003F000000400000003F000040400000001A
:140564003F000040400000403F000040400000803E0000A067
:14057800400000003F0000803F0000003F00000040000000B2
:14058C003F000040400000003F000040400000803F0000A07E
:1405A000400000003F000040400000003F0000A04000000029
:1405B4003F0000C0400000003F0000C0400000403F0000C076
:1405C800400000803E0000A0400000803F0000803F000000C3
:1405DC003F000040400000003F000000400000003F0000800E
:1405F0003F0000003F0000803F000040400000F0410000F019
:140604004100000000000000000000000000000000000000A1
:140618000000000000000000000000000000000000000000CE
:14062C000000000000000000000000000000000000000000BA
:140640000000000000000000000000000000000000000000A6
:14065400000000000000000000000000000000000000000092
:1406680000000000000000000000000000000000000000007E
:14067C0000000000000000000000000000000000000000006A
:14069000000000000000000000000000000000000000000056
:1406A400000000000000000000000000000000000000000042
:1406B80000000000000000000000000000000000000000002E
:1406CC0000000000000000000000000000000000000000001A
:1406E000000000000000000000000000000000000000000006
:1406F4000000000000000000000000000000000000000000F2
:140708000000000000233420503135353420233820503133F8
:14071C00383420233132205031393030202331362050313200
:140730003133202332302050313530382023323420503134F0
:140744003135202332382050313633302054313030002334F8
:140758002050313038392023382050313338342023313220CA
:14076C005031393030202331362050313231332023323020B9
:14078000503135303820233234205031343135202332382096
:14079400503136333020543130300023342050313038392079
:1407A80023382050383537202331322050313930302023317A
:1407BC00362050313231332023323020503135303820233264
:1407D00034205031343135202332382050313633302054311A
:1407E400303000233420503130383920233820503835372059
:1407F80023313220503135323320233136205031323133202B
:14080C00233230205031353038202332342050313431352011
:14082000233238205031363330205431303000233420503100
:140834003038392023382050383537202331322050313532D2
:140848003320233136205038383820233230205031353038C4
:14085C002023323420503134313520233238205031363330BD
:140870002054313030002334205031303839202338205038B3
:14088400353720233132205031353233202331362050383889
:14089800382023323020503130353820233234205031343182
:1408AC003520233238205031363330205431303000233420A0
:1408C000503135353420233820503133383420233132205034
:1408D400313930302023313620503132313320233230205050
:1408E80031353038202332342050313131362023323820502F
:1408FC0031363330205431303000233420503130383920233D
:140910003820503835372023313220503135323320233136FC
:140924002050383838202332302050313035382023323420FB
:140938005039393620233238205031363330205431303000C7
:14094C002334205031303839202338205038353720233132C9
:140960002050313532332023313620503838382023323020C1
:14097400503130353820233234205039393620233238205073
:140988003138333320543130300023342050313038392023AB
:14099C00382050383537202331322050313532332023313670
:1409B00020503838382023323020503130353820233234206F
:1409C400503939362023323820503138333320543130300036
:1409D80023304C0023304800CFEFD0E1CDBFDEBFCE51D0400A
:1409EC000AEA08830024ECE4FAE01AE0ED34F10711F0019203
:140A0000FBCF0083E4E9F0E0A0E0B1E019E000E00BBFE03E26
:140A1400F10721F0C89531960D92F9CF0E94DA06FFCF0E9448
:140A2800B907442755270BC06627772702C06F5F7F4F603D22
:140A3C00E7E07E07D0F34F5F5F4F4017510790F30C94BE07A4
:140A5000D19AD29AD998DA9808950E94C307580122242AB84E
:140A64002BB886E08093950015014424552440E251EA67E0F2
:140A780070E05A924A923A922A928A019B010E942A0741E0AF
:140A8C0050E060E070E018012901241A350A460A570A5101D3
:140AA00029B8232C332420929000549A579A80E88FBF0C9444
:140AB400CA072A928A932FB62A9257982CB020924C0A81E0AF
:140AC8008093000129902FBE8991299018950E94C30758011B
:140ADC00222420929A0020929B0086E080939D001501442493
:140AF000552440E251EA67E070E05A924A923A922A928A01AA
:140B04009B010E942A0741E050E060E070E018012901241A0C
:140B1800350A460A570A5101A0929900232C332420929800CC
:140B2C0080919A00886880939A0080E88FBF8B9A0C94CA0721
:140B400020909B0025FEFCCF00939C0020909B0026FEFCCFFF
:140B540080919B00806480939B0008950E94B207E22E6801DE
:140B6800AA240EC0EA2DFF27EC0DFD1D2080222031F0EA2D73
:140B7C00FF27EC0DFD1D0081DDDFA394AE1480F30C94A70735
:140B90000E94B40768012897AA2401E010E0F3D00CE211E08B
:140BA40040DF36C0EA2DFF27EE0FFF1FEE0FFF1FEE0FFF1F9A
:140BB800EC0DFD1D2080318042805380288239824A825B8222
:140BCC0000E910E00E948E078A2D9927880F991F880F991FF0
:140BE000880F991F8C0D9D1D04969A938A930E9455090C83EC
:140BF4001D832E833F83088119812A813B8131D00C811D8124
:140C08002E813F810E9444080ADFA394EA2DFF27EE0FFF1F03
:140C1C00EE0FFF1FEE0FFF1FEC0DFD1D208031804280538095
:140C30000CE810E00E948E073A932A931A930A9381019201AC
:140C44000E946C0909F0AECF002711279AD025E40EEF19E047
:140C580083DF0091010170DF28960C94A2070E941F074A9398
:140C6C005A930A811B812C813D810E944408402F55274130AB
:140C8000E0E05E0709F42EC04230E0E05E0709F431C0433058
:140C9400E0E05E0709F434C04430E0E05E0709F437C0453034
:140CA800E0E05E0709F43AC04630E0E05E0709F43DC0413016
:140CBC00E0E05E070CF457C04931E0E05E0709F43BC04A31D6
:140CD000E0E05E0709F43EC04B31E0E05E0709F441C047C04A
:140CE40027E403E518E03ADF0091010127DF3FC026E40BE962
:140CF80018E032DF009101011FDF37C026E402EE18E02ADF5C
:140D0C000091010117DF2FC028E409E219E022DF00910101D7
:140D20000FDF27C025E402E719E01ADF0091010107DF1FC0AE
:140D340025E408EB19E012DF00910101FFDE17C028E409E782
:140D480017E00ADF00910101F7DE0FC028E402EC17E002DFAE
:140D5C0000910101EFDE07C027E40BE018E0FADE0091010103
:140D7000E7DE5991499124960895002311F0DA9A01C0DA98C4
:140D840008954A93402F413049F4D99A23E008E41AE0E4DEA6
:140D980000910101D1DE08C0D99823E004E41AE0DBDE00919D
:140DAC000101C8DE4991089500E815E250DE00E815E28BDEBF
:140DC0003CC080910001813009F037C040914C0A552741305C
:140DD400E0E05E0769F04230E0E05E0781F04330E0E05E07ED
:140DE80099F04430E0E05E07B9F01DC008EB1BE016DE09E381
:140DFC0011E0C8DE16C00CEA1DE00FDE09E514E0C1DE0FC046
:140E10002EE00DE111E0A4DE02E310E004DE07C02EE00BE2E6
:140E240011E09CDE02E310E0FCDD222420924C0A20920001A0
:140E3800579AC3CF08953A932A931A930A930895E89401C0D8
:140E4C00689430D0CC2409C0E89401C068942AD037FD0E94D4
:140E6000D107B7FD52D0772488249924AA24BB2442D0C1F05C
:140E740045D0B1F0E8E2000F111F221F331F771C881C991C2C
:140E8800AA1CBB1C88169906AA06BB0628F0881A990AAA0AFA
:140E9C00BB0A0395EA9559F726F4082D192D2A2D3B2D13C0EF
:140EB0007A928A929A92AA92BA92CA92EA938A939A93AA93F2
:140EC400BA938B859C85AD85BE85C32E0EF0CB260895C7FCE7
:140ED8000E94D107B991A99199918991E991C990B990A9906F
:140EEC0099908990799024960895E02FE12BE22BE32B08957D
:140F0000E82FE92BEA2BEB2B089580959095A095B0958F5F48
:140F14009F4FAF4FBF4F0895EA93FA930A92E02FF12FD895F0
:140F2800002D3196D895102D3196D895202D3196D895302D05
:140F3C000990F991E9910895A990B990C990D9900895A9904D
:140F5000B990C990D990E990F99008957A936A935A934A930F
:140F6400FA92EA92DA92CA92BA92AA9208957A936A935A938D
:140F78004A930895499159916991799108957A936A935A938F
:140F8C004A93BA92AA920895A990B990499159916991799105
:140FA000089500951095209530950F5F1F4F2F4F3F4F089567
:140FB400689401C0E8940E94E4080E94760809F448C0E62C2B
:140FC800D52CC42CB32EA22E912E802E00811181228133819C
:140FDC000E94760809F444C0842D952D8C199D09B9F072F413
:140FF0009095809501964C2C5D2C8831B8F535952795179583
:1410040007950197D1F708C0883118F5B594A7949794879484
:141018000197D1F766242EF0080D191D2A1D3B1D09C0801A6F
:14102C00910AA20AB30A082D192D2A2D3B2D332322F40E9464
:14104000D10780E8682E0E949F0802C00E94D4080E94F308A0
:1410540008950081118122813381C6F70E947E08A9F380E898
:141068003827F2CF082D192D2A2D3B2D4C2C5D2C6E2C332329
:14107C003AF70E94D10780E8682EE2CF4A925A926A928A9325
:141090000E94860811F15520E2F08FE14816C0F487E148168B
:1410A400D1F058F4419489EE481A05C03595279517950795EA
:1410B8004A94D1F70EC087E1481A000F111F221F331F4A9436
:1410CC00D1F705C03FE7232F132F032F04C0662011F00E94AA
:1410E000D107899169905990499008950FD029F0662011F033
:1410F4000E94D10798940895002329F4112319F4222309F4E2
:1411080033230895F7DF99F08A93632E80E86822220F331F5E
:14111C00432E8FE7481A55248827580A269530E8232B332771
:141130008991989408954424552466240895DEDF09F4089569
:14114400AA93BA93D2019A938A938EE790E0332349F03695B1
:14115800279517950795A817B907CCF41196F5CF809590959B
:14116C0001962223BAF0000F111F221FA817B90714F011973E
:14118000F6CF0027112722273327899199912D01B991A9919E
:14119400089533270FEF102F2FE7322F899199912D0102C068
:1411A800AA93BA93A7DF49F0D201A158BF4F2D01342D220F50
:1411BC00369527953629B991A99108954A925A926A927A9248
:1411D0008A929A92AA92BA92CA92DA92EA92FA928A939A9321
:1411E400089599918991F990E990D990C990B990A9909990A7
:1411F8008990799069905990499008950E94E408AA93BA9351
:14120C000E948608E1F1E62CD52CC42CB32EA22E912E802EAB
:1412200000811181228133810E94860871F16E244C0C5D1C5B
:1412340080E84816530664F581E848168FEF58066CF1A29EEE
:14124800B12DA02D919E912D802DA09E800D911DA31FB31F40
:14125C00829E800D911DA31FB31F929E900DA11DB31FA19EF3
:14127000900DA11DB31F2B2F1A2F092F880F001F111F221F3B
:14128400331F0E949F08B991A9910E94F30808950FEF102FC0
:141298002FE78FE7482EF5CF0027102F202F302FF0CFFA931C
:1412AC00EA93EA81FB810E940209E991F991229608950E9422
:1412C000DA0733233AF00E947E0811F001E00895002708954E
:1412D4000FEF0895FA93EA93EC2FFD2F32960E945F09E991CE
:0812E800F991249600230895FA
:00000001FF
